{"abi":[{"type":"constructor","inputs":[{"name":"name_","type":"string","internalType":"string"},{"name":"symbol_","type":"string","internalType":"string"}],"stateMutability":"nonpayable"},{"type":"function","name":"allowedResidencyEmails","inputs":[{"name":"","type":"bytes32","internalType":"bytes32"}],"outputs":[{"name":"","type":"bool","internalType":"bool"}],"stateMutability":"view"},{"type":"function","name":"approve","inputs":[{"name":"to","type":"address","internalType":"address"},{"name":"tokenId","type":"uint256","internalType":"uint256"}],"outputs":[],"stateMutability":"nonpayable"},{"type":"function","name":"balanceOf","inputs":[{"name":"owner","type":"address","internalType":"address"}],"outputs":[{"name":"","type":"uint256","internalType":"uint256"}],"stateMutability":"view"},{"type":"function","name":"conferenceBaseTokenURI","inputs":[],"outputs":[{"name":"","type":"string","internalType":"string"}],"stateMutability":"view"},{"type":"function","name":"getApproved","inputs":[{"name":"tokenId","type":"uint256","internalType":"uint256"}],"outputs":[{"name":"","type":"address","internalType":"address"}],"stateMutability":"view"},{"type":"function","name":"hasMintedConference","inputs":[{"name":"","type":"address","internalType":"address"}],"outputs":[{"name":"","type":"bool","internalType":"bool"}],"stateMutability":"view"},{"type":"function","name":"hasMintedInVenue","inputs":[{"name":"","type":"address","internalType":"address"}],"outputs":[{"name":"","type":"bool","internalType":"bool"}],"stateMutability":"view"},{"type":"function","name":"hasMintedResidency","inputs":[{"name":"","type":"address","internalType":"address"}],"outputs":[{"name":"","type":"bool","internalType":"bool"}],"stateMutability":"view"},{"type":"function","name":"inVenueBaseTokenURI","inputs":[],"outputs":[{"name":"","type":"string","internalType":"string"}],"stateMutability":"view"},{"type":"function","name":"isApprovedForAll","inputs":[{"name":"owner","type":"address","internalType":"address"},{"name":"operator","type":"address","internalType":"address"}],"outputs":[{"name":"","type":"bool","internalType":"bool"}],"stateMutability":"view"},{"type":"function","name":"mintBuilderResidency","inputs":[{"name":"email","type":"string","internalType":"string"}],"outputs":[],"stateMutability":"nonpayable"},{"type":"function","name":"mintConferenceAttendance","inputs":[],"outputs":[],"stateMutability":"nonpayable"},{"type":"function","name":"mintInVenueRegistration","inputs":[],"outputs":[],"stateMutability":"nonpayable"},{"type":"function","name":"name","inputs":[],"outputs":[{"name":"","type":"string","internalType":"string"}],"stateMutability":"view"},{"type":"function","name":"owner","inputs":[],"outputs":[{"name":"","type":"address","internalType":"address"}],"stateMutability":"view"},{"type":"function","name":"ownerOf","inputs":[{"name":"tokenId","type":"uint256","internalType":"uint256"}],"outputs":[{"name":"","type":"address","internalType":"address"}],"stateMutability":"view"},{"type":"function","name":"renounceOwnership","inputs":[],"outputs":[],"stateMutability":"nonpayable"},{"type":"function","name":"residencyBaseTokenURI","inputs":[],"outputs":[{"name":"","type":"string","internalType":"string"}],"stateMutability":"view"},{"type":"function","name":"safeTransferFrom","inputs":[{"name":"from","type":"address","internalType":"address"},{"name":"to","type":"address","internalType":"address"},{"name":"tokenId","type":"uint256","internalType":"uint256"}],"outputs":[],"stateMutability":"nonpayable"},{"type":"function","name":"safeTransferFrom","inputs":[{"name":"from","type":"address","internalType":"address"},{"name":"to","type":"address","internalType":"address"},{"name":"tokenId","type":"uint256","internalType":"uint256"},{"name":"data","type":"bytes","internalType":"bytes"}],"outputs":[],"stateMutability":"nonpayable"},{"type":"function","name":"setApprovalForAll","inputs":[{"name":"operator","type":"address","internalType":"address"},{"name":"approved","type":"bool","internalType":"bool"}],"outputs":[],"stateMutability":"nonpayable"},{"type":"function","name":"supportsInterface","inputs":[{"name":"interfaceId","type":"bytes4","internalType":"bytes4"}],"outputs":[{"name":"","type":"bool","internalType":"bool"}],"stateMutability":"view"},{"type":"function","name":"symbol","inputs":[],"outputs":[{"name":"","type":"string","internalType":"string"}],"stateMutability":"view"},{"type":"function","name":"tokenURI","inputs":[{"name":"tokenId","type":"uint256","internalType":"uint256"}],"outputs":[{"name":"","type":"string","internalType":"string"}],"stateMutability":"view"},{"type":"function","name":"transferFrom","inputs":[{"name":"from","type":"address","internalType":"address"},{"name":"to","type":"address","internalType":"address"},{"name":"tokenId","type":"uint256","internalType":"uint256"}],"outputs":[],"stateMutability":"nonpayable"},{"type":"function","name":"transferOwnership","inputs":[{"name":"newOwner","type":"address","internalType":"address"}],"outputs":[],"stateMutability":"nonpayable"},{"type":"function","name":"updateAllowedResidencyEmail","inputs":[{"name":"email","type":"string","internalType":"string"},{"name":"allowed","type":"bool","internalType":"bool"}],"outputs":[],"stateMutability":"nonpayable"},{"type":"event","name":"AllowedEmailUpdated","inputs":[{"name":"emailHash","type":"bytes32","indexed":false,"internalType":"bytes32"},{"name":"allowed","type":"bool","indexed":false,"internalType":"bool"}],"anonymous":false},{"type":"event","name":"Approval","inputs":[{"name":"owner","type":"address","indexed":true,"internalType":"address"},{"name":"approved","type":"address","indexed":true,"internalType":"address"},{"name":"tokenId","type":"uint256","indexed":true,"internalType":"uint256"}],"anonymous":false},{"type":"event","name":"ApprovalForAll","inputs":[{"name":"owner","type":"address","indexed":true,"internalType":"address"},{"name":"operator","type":"address","indexed":true,"internalType":"address"},{"name":"approved","type":"bool","indexed":false,"internalType":"bool"}],"anonymous":false},{"type":"event","name":"ConferenceMinted","inputs":[{"name":"to","type":"address","indexed":true,"internalType":"address"},{"name":"tokenId","type":"uint256","indexed":true,"internalType":"uint256"}],"anonymous":false},{"type":"event","name":"InVenueMinted","inputs":[{"name":"to","type":"address","indexed":true,"internalType":"address"},{"name":"tokenId","type":"uint256","indexed":true,"internalType":"uint256"}],"anonymous":false},{"type":"event","name":"OwnershipTransferred","inputs":[{"name":"previousOwner","type":"address","indexed":true,"internalType":"address"},{"name":"newOwner","type":"address","indexed":true,"internalType":"address"}],"anonymous":false},{"type":"event","name":"ResidencyMinted","inputs":[{"name":"to","type":"address","indexed":true,"internalType":"address"},{"name":"tokenId","type":"uint256","indexed":true,"internalType":"uint256"},{"name":"email","type":"string","indexed":false,"internalType":"string"}],"anonymous":false},{"type":"event","name":"Transfer","inputs":[{"name":"from","type":"address","indexed":true,"internalType":"address"},{"name":"to","type":"address","indexed":true,"internalType":"address"},{"name":"tokenId","type":"uint256","indexed":true,"internalType":"uint256"}],"anonymous":false}],"bytecode":{"object":"0x608060405234801561000f575f5ffd5b50604051613f81380380613f8183398181016040528101906100319190610365565b8181815f908161004191906105eb565b50806001908161005191906105eb565b50505061007061006561014e60201b60201c565b61015560201b60201c565b60016007819055506040518060400160405280601e81526020017f68747470733a2f2f7265736964656e63792e6578616d706c652f6170692f0000815250600c90816100bc91906105eb565b506040518060400160405280601c81526020017f68747470733a2f2f696e76656e75652e6578616d706c652f6170692f00000000815250600d908161010191906105eb565b506040518060400160405280601f81526020017f68747470733a2f2f636f6e666572656e63652e6578616d706c652f6170692f00815250600e908161014691906105eb565b5050506106ba565b5f33905090565b5f60065f9054906101000a900473ffffffffffffffffffffffffffffffffffffffff1690508160065f6101000a81548173ffffffffffffffffffffffffffffffffffffffff021916908373ffffffffffffffffffffffffffffffffffffffff1602179055508173ffffffffffffffffffffffffffffffffffffffff168173ffffffffffffffffffffffffffffffffffffffff167f8be0079c531659141344cd1fd0a4f28419497f9722a3daafe3b4186f6b6457e060405160405180910390a35050565b5f604051905090565b5f5ffd5b5f5ffd5b5f5ffd5b5f5ffd5b5f601f19601f8301169050919050565b7f4e487b71000000000000000000000000000000000000000000000000000000005f52604160045260245ffd5b61027782610231565b810181811067ffffffffffffffff8211171561029657610295610241565b5b80604052505050565b5f6102a8610218565b90506102b4828261026e565b919050565b5f67ffffffffffffffff8211156102d3576102d2610241565b5b6102dc82610231565b9050602081019050919050565b8281835e5f83830152505050565b5f610309610304846102b9565b61029f565b9050828152602081018484840111156103255761032461022d565b5b6103308482856102e9565b509392505050565b5f82601f83011261034c5761034b610229565b5b815161035c8482602086016102f7565b91505092915050565b5f5f6040838503121561037b5761037a610221565b5b5f83015167ffffffffffffffff81111561039857610397610225565b5b6103a485828601610338565b925050602083015167ffffffffffffffff8111156103c5576103c4610225565b5b6103d185828601610338565b9150509250929050565b5f81519050919050565b7f4e487b71000000000000000000000000000000000000000000000000000000005f52602260045260245ffd5b5f600282049050600182168061042957607f821691505b60208210810361043c5761043b6103e5565b5b50919050565b5f819050815f5260205f209050919050565b5f6020601f8301049050919050565b5f82821b905092915050565b5f6008830261049e7fffffffffffffffffffffffffffffffffffffffffffffffffffffffffffffffff82610463565b6104a88683610463565b95508019841693508086168417925050509392505050565b5f819050919050565b5f819050919050565b5f6104ec6104e76104e2846104c0565b6104c9565b6104c0565b9050919050565b5f819050919050565b610505836104d2565b610519610511826104f3565b84845461046f565b825550505050565b5f5f905090565b610530610521565b61053b8184846104fc565b505050565b5b8181101561055e576105535f82610528565b600181019050610541565b5050565b601f8211156105a35761057481610442565b61057d84610454565b8101602085101561058c578190505b6105a061059885610454565b830182610540565b50505b505050565b5f82821c905092915050565b5f6105c35f19846008026105a8565b1980831691505092915050565b5f6105db83836105b4565b9150826002028217905092915050565b6105f4826103db565b67ffffffffffffffff81111561060d5761060c610241565b5b6106178254610412565b610622828285610562565b5f60209050601f831160018114610653575f8415610641578287015190505b61064b85826105d0565b8655506106b2565b601f19841661066186610442565b5f5b8281101561068857848901518255600182019150602085019450602081019050610663565b868310156106a557848901516106a1601f8916826105b4565b8355505b6001600288020188555050505b505050505050565b6138ba806106c75f395ff3fe608060405234801561000f575f5ffd5b50600436106101a7575f3560e01c806395d89b41116100f7578063da3d737f11610095578063e985e9c51161006f578063e985e9c5146104b5578063f15877f3146104e5578063f2fde38b14610503578063f810a5f91461051f576101a7565b8063da3d737f1461044b578063dabe09e71461047b578063e844a92a14610497576101a7565b8063a22cb465116100d1578063a22cb465146103b3578063b88d4fde146103cf578063c87b56dd146103eb578063d224aa671461041b576101a7565b806395d89b411461035b57806397c3d580146103795780639979ffb014610383576101a7565b806342842e0e116101645780636352211e1161013e5780636352211e146102d357806370a0823114610303578063715018a6146103335780638da5cb5b1461033d576101a7565b806342842e0e1461027d5780634599affb14610299578063554e124d146102a3576101a7565b806301ffc9a7146101ab57806306fdde03146101db578063081812fc146101f9578063095ea7b3146102295780630d6b020c1461024557806323b872dd14610261575b5f5ffd5b6101c560048036038101906101c09190612648565b61053d565b6040516101d2919061268d565b60405180910390f35b6101e361061e565b6040516101f09190612716565b60405180910390f35b610213600480360381019061020e9190612769565b6106ad565b60405161022091906127d3565b60405180910390f35b610243600480360381019061023e9190612816565b6106ef565b005b61025f600480360381019061025a9190612980565b610805565b005b61027b600480360381019061027691906129c7565b610a28565b005b610297600480360381019061029291906129c7565b610a88565b005b6102a1610aa7565b005b6102bd60048036038101906102b89190612a17565b610c37565b6040516102ca919061268d565b60405180910390f35b6102ed60048036038101906102e89190612769565b610c54565b6040516102fa91906127d3565b60405180910390f35b61031d60048036038101906103189190612a17565b610cd8565b60405161032a9190612a51565b60405180910390f35b61033b610d8c565b005b610345610d9f565b60405161035291906127d3565b60405180910390f35b610363610dc7565b6040516103709190612716565b60405180910390f35b610381610e57565b005b61039d60048036038101906103989190612a17565b610fe7565b6040516103aa919061268d565b60405180910390f35b6103cd60048036038101906103c89190612a94565b611004565b005b6103e960048036038101906103e49190612b70565b61101a565b005b61040560048036038101906104009190612769565b61107c565b6040516104129190612716565b60405180910390f35b61043560048036038101906104309190612c23565b611320565b604051610442919061268d565b60405180910390f35b61046560048036038101906104609190612a17565b61133d565b604051610472919061268d565b60405180910390f35b61049560048036038101906104909190612c4e565b61135a565b005b61049f6113f2565b6040516104ac9190612716565b60405180910390f35b6104cf60048036038101906104ca9190612ca8565b61147e565b6040516104dc919061268d565b60405180910390f35b6104ed61150c565b6040516104fa9190612716565b60405180910390f35b61051d60048036038101906105189190612a17565b611598565b005b61052761161a565b6040516105349190612716565b60405180910390f35b5f7f80ac58cd000000000000000000000000000000000000000000000000000000007bffffffffffffffffffffffffffffffffffffffffffffffffffffffff1916827bffffffffffffffffffffffffffffffffffffffffffffffffffffffff1916148061060757507f5b5e139f000000000000000000000000000000000000000000000000000000007bffffffffffffffffffffffffffffffffffffffffffffffffffffffff1916827bffffffffffffffffffffffffffffffffffffffffffffffffffffffff1916145b806106175750610616826116a6565b5b9050919050565b60605f805461062c90612d13565b80601f016020809104026020016040519081016040528092919081815260200182805461065890612d13565b80156106a35780601f1061067a576101008083540402835291602001916106a3565b820191905f5260205f20905b81548152906001019060200180831161068657829003601f168201915b5050505050905090565b5f6106b78261170f565b60045f8381526020019081526020015f205f9054906101000a900473ffffffffffffffffffffffffffffffffffffffff169050919050565b5f6106f982610c54565b90508073ffffffffffffffffffffffffffffffffffffffff168373ffffffffffffffffffffffffffffffffffffffff1603610769576040517f08c379a000000000000000000000000000000000000000000000000000000000815260040161076090612db3565b60405180910390fd5b8073ffffffffffffffffffffffffffffffffffffffff1661078861175a565b73ffffffffffffffffffffffffffffffffffffffff1614806107b757506107b6816107b161175a565b61147e565b5b6107f6576040517f08c379a00000000000000000000000000000000000000000000000000000000081526004016107ed90612e41565b60405180910390fd5b6108008383611761565b505050565b61080d611817565b5f8160405160200161081f9190612e99565b60405160208183030381529060405280519060200120905060085f8281526020019081526020015f205f9054906101000a900460ff16610894576040517f08c379a000000000000000000000000000000000000000000000000000000000815260040161088b90612ef9565b60405180910390fd5b60095f3373ffffffffffffffffffffffffffffffffffffffff1673ffffffffffffffffffffffffffffffffffffffff1681526020019081526020015f205f9054906101000a900460ff161561091e576040517f08c379a000000000000000000000000000000000000000000000000000000000815260040161091590612f61565b60405180910390fd5b600160095f3373ffffffffffffffffffffffffffffffffffffffff1673ffffffffffffffffffffffffffffffffffffffff1681526020019081526020015f205f6101000a81548160ff02191690831515021790555061097d600f611866565b5f610988600f61187a565b90505f60125f8381526020019081526020015f205f6101000a81548160ff021916908360028111156109bd576109bc612f7f565b5b02179055506109cc3382611886565b803373ffffffffffffffffffffffffffffffffffffffff167f9bd74f0f55eb551b3853c9ae99b2ee087d306794f6820e83285d0bd77cc1568385604051610a139190612716565b60405180910390a35050610a256118a3565b50565b610a39610a3361175a565b826118ad565b610a78576040517f08c379a0000000000000000000000000000000000000000000000000000000008152600401610a6f9061301c565b60405180910390fd5b610a83838383611941565b505050565b610aa283838360405180602001604052805f81525061101a565b505050565b610aaf611817565b600b5f3373ffffffffffffffffffffffffffffffffffffffff1673ffffffffffffffffffffffffffffffffffffffff1681526020019081526020015f205f9054906101000a900460ff1615610b39576040517f08c379a0000000000000000000000000000000000000000000000000000000008152600401610b3090613084565b60405180910390fd5b6001600b5f3373ffffffffffffffffffffffffffffffffffffffff1673ffffffffffffffffffffffffffffffffffffffff1681526020019081526020015f205f6101000a81548160ff021916908315150217905550610b986011611866565b5f610ba3601161187a565b9050600260125f8381526020019081526020015f205f6101000a81548160ff02191690836002811115610bd957610bd8612f7f565b5b0217905550610be83382611886565b803373ffffffffffffffffffffffffffffffffffffffff167ff799c16cb8da867c1f800fb07956b50c99819b88c6c23c9fed7745245380f25760405160405180910390a350610c356118a3565b565b6009602052805f5260405f205f915054906101000a900460ff1681565b5f5f610c5f83611c2d565b90505f73ffffffffffffffffffffffffffffffffffffffff168173ffffffffffffffffffffffffffffffffffffffff1603610ccf576040517f08c379a0000000000000000000000000000000000000000000000000000000008152600401610cc6906130ec565b60405180910390fd5b80915050919050565b5f5f73ffffffffffffffffffffffffffffffffffffffff168273ffffffffffffffffffffffffffffffffffffffff1603610d47576040517f08c379a0000000000000000000000000000000000000000000000000000000008152600401610d3e9061317a565b60405180910390fd5b60035f8373ffffffffffffffffffffffffffffffffffffffff1673ffffffffffffffffffffffffffffffffffffffff1681526020019081526020015f20549050919050565b610d94611c66565b610d9d5f611ce4565b565b5f60065f9054906101000a900473ffffffffffffffffffffffffffffffffffffffff16905090565b606060018054610dd690612d13565b80601f0160208091040260200160405190810160405280929190818152602001828054610e0290612d13565b8015610e4d5780601f10610e2457610100808354040283529160200191610e4d565b820191905f5260205f20905b815481529060010190602001808311610e3057829003601f168201915b5050505050905090565b610e5f611817565b600a5f3373ffffffffffffffffffffffffffffffffffffffff1673ffffffffffffffffffffffffffffffffffffffff1681526020019081526020015f205f9054906101000a900460ff1615610ee9576040517f08c379a0000000000000000000000000000000000000000000000000000000008152600401610ee0906131e2565b60405180910390fd5b6001600a5f3373ffffffffffffffffffffffffffffffffffffffff1673ffffffffffffffffffffffffffffffffffffffff1681526020019081526020015f205f6101000a81548160ff021916908315150217905550610f486010611866565b5f610f53601061187a565b9050600160125f8381526020019081526020015f205f6101000a81548160ff02191690836002811115610f8957610f88612f7f565b5b0217905550610f983382611886565b803373ffffffffffffffffffffffffffffffffffffffff167f27773c859882361e4dfc8e6306a2f56363bad4aacdc28aa2fb6949e7581edd3760405160405180910390a350610fe56118a3565b565b600a602052805f5260405f205f915054906101000a900460ff1681565b61101661100f61175a565b8383611da7565b5050565b61102b61102561175a565b836118ad565b61106a576040517f08c379a00000000000000000000000000000000000000000000000000000000081526004016110619061301c565b60405180910390fd5b61107684848484611f0e565b50505050565b606061108782611f6a565b6110c6576040517f08c379a00000000000000000000000000000000000000000000000000000000081526004016110bd90613270565b60405180910390fd5b5f60125f8481526020019081526020015f205f9054906101000a900460ff16905060605f60028111156110fc576110fb612f7f565b5b82600281111561110f5761110e612f7f565b5b036111a457600c805461112190612d13565b80601f016020809104026020016040519081016040528092919081815260200182805461114d90612d13565b80156111985780601f1061116f57610100808354040283529160200191611198565b820191905f5260205f20905b81548152906001019060200180831161117b57829003601f168201915b505050505090506112ed565b600160028111156111b8576111b7612f7f565b5b8260028111156111cb576111ca612f7f565b5b0361126057600d80546111dd90612d13565b80601f016020809104026020016040519081016040528092919081815260200182805461120990612d13565b80156112545780601f1061122b57610100808354040283529160200191611254565b820191905f5260205f20905b81548152906001019060200180831161123757829003601f168201915b505050505090506112ec565b600e805461126d90612d13565b80601f016020809104026020016040519081016040528092919081815260200182805461129990612d13565b80156112e45780601f106112bb576101008083540402835291602001916112e4565b820191905f5260205f20905b8154815290600101906020018083116112c757829003601f168201915b505050505090505b5b806112f785611faa565b6040516020016113089291906132d8565b60405160208183030381529060405292505050919050565b6008602052805f5260405f205f915054906101000a900460ff1681565b600b602052805f5260405f205f915054906101000a900460ff1681565b611362611c66565b5f826040516020016113749190612e99565b6040516020818303038152906040528051906020012090508160085f8381526020019081526020015f205f6101000a81548160ff0219169083151502179055507f9be8c77edd3d19936c968050468d2b089d071d80470cd7f1b12ef7209c17b4a281836040516113e5929190613315565b60405180910390a1505050565b600c80546113ff90612d13565b80601f016020809104026020016040519081016040528092919081815260200182805461142b90612d13565b80156114765780601f1061144d57610100808354040283529160200191611476565b820191905f5260205f20905b81548152906001019060200180831161145957829003601f168201915b505050505081565b5f60055f8473ffffffffffffffffffffffffffffffffffffffff1673ffffffffffffffffffffffffffffffffffffffff1681526020019081526020015f205f8373ffffffffffffffffffffffffffffffffffffffff1673ffffffffffffffffffffffffffffffffffffffff1681526020019081526020015f205f9054906101000a900460ff16905092915050565b600d805461151990612d13565b80601f016020809104026020016040519081016040528092919081815260200182805461154590612d13565b80156115905780601f1061156757610100808354040283529160200191611590565b820191905f5260205f20905b81548152906001019060200180831161157357829003601f168201915b505050505081565b6115a0611c66565b5f73ffffffffffffffffffffffffffffffffffffffff168173ffffffffffffffffffffffffffffffffffffffff160361160e576040517f08c379a0000000000000000000000000000000000000000000000000000000008152600401611605906133ac565b60405180910390fd5b61161781611ce4565b50565b600e805461162790612d13565b80601f016020809104026020016040519081016040528092919081815260200182805461165390612d13565b801561169e5780601f106116755761010080835404028352916020019161169e565b820191905f5260205f20905b81548152906001019060200180831161168157829003601f168201915b505050505081565b5f7f01ffc9a7000000000000000000000000000000000000000000000000000000007bffffffffffffffffffffffffffffffffffffffffffffffffffffffff1916827bffffffffffffffffffffffffffffffffffffffffffffffffffffffff1916149050919050565b61171881611f6a565b611757576040517f08c379a000000000000000000000000000000000000000000000000000000000815260040161174e906130ec565b60405180910390fd5b50565b5f33905090565b8160045f8381526020019081526020015f205f6101000a81548173ffffffffffffffffffffffffffffffffffffffff021916908373ffffffffffffffffffffffffffffffffffffffff160217905550808273ffffffffffffffffffffffffffffffffffffffff166117d183610c54565b73ffffffffffffffffffffffffffffffffffffffff167f8c5be1e5ebec7d5bd14f71427d1e84f3dd0314c0f7b2291e5b200ac8c7c3b92560405160405180910390a45050565b60026007540361185c576040517f08c379a000000000000000000000000000000000000000000000000000000000815260040161185390613414565b60405180910390fd5b6002600781905550565b6001815f015f828254019250508190555050565b5f815f01549050919050565b61189f828260405180602001604052805f815250612074565b5050565b6001600781905550565b5f5f6118b883610c54565b90508073ffffffffffffffffffffffffffffffffffffffff168473ffffffffffffffffffffffffffffffffffffffff1614806118fa57506118f9818561147e565b5b8061193857508373ffffffffffffffffffffffffffffffffffffffff16611920846106ad565b73ffffffffffffffffffffffffffffffffffffffff16145b91505092915050565b8273ffffffffffffffffffffffffffffffffffffffff1661196182610c54565b73ffffffffffffffffffffffffffffffffffffffff16146119b7576040517f08c379a00000000000000000000000000000000000000000000000000000000081526004016119ae906134a2565b60405180910390fd5b5f73ffffffffffffffffffffffffffffffffffffffff168273ffffffffffffffffffffffffffffffffffffffff1603611a25576040517f08c379a0000000000000000000000000000000000000000000000000000000008152600401611a1c90613530565b60405180910390fd5b611a3283838360016120ce565b8273ffffffffffffffffffffffffffffffffffffffff16611a5282610c54565b73ffffffffffffffffffffffffffffffffffffffff1614611aa8576040517f08c379a0000000000000000000000000000000000000000000000000000000008152600401611a9f906134a2565b60405180910390fd5b60045f8281526020019081526020015f205f6101000a81549073ffffffffffffffffffffffffffffffffffffffff0219169055600160035f8573ffffffffffffffffffffffffffffffffffffffff1673ffffffffffffffffffffffffffffffffffffffff1681526020019081526020015f205f8282540392505081905550600160035f8473ffffffffffffffffffffffffffffffffffffffff1673ffffffffffffffffffffffffffffffffffffffff1681526020019081526020015f205f82825401925050819055508160025f8381526020019081526020015f205f6101000a81548173ffffffffffffffffffffffffffffffffffffffff021916908373ffffffffffffffffffffffffffffffffffffffff160217905550808273ffffffffffffffffffffffffffffffffffffffff168473ffffffffffffffffffffffffffffffffffffffff167fddf252ad1be2c89b69c2b068fc378daa952ba7f163c4a11628f55a4df523b3ef60405160405180910390a4611c2883838360016120d4565b505050565b5f60025f8381526020019081526020015f205f9054906101000a900473ffffffffffffffffffffffffffffffffffffffff169050919050565b611c6e61175a565b73ffffffffffffffffffffffffffffffffffffffff16611c8c610d9f565b73ffffffffffffffffffffffffffffffffffffffff1614611ce2576040517f08c379a0000000000000000000000000000000000000000000000000000000008152600401611cd990613598565b60405180910390fd5b565b5f60065f9054906101000a900473ffffffffffffffffffffffffffffffffffffffff1690508160065f6101000a81548173ffffffffffffffffffffffffffffffffffffffff021916908373ffffffffffffffffffffffffffffffffffffffff1602179055508173ffffffffffffffffffffffffffffffffffffffff168173ffffffffffffffffffffffffffffffffffffffff167f8be0079c531659141344cd1fd0a4f28419497f9722a3daafe3b4186f6b6457e060405160405180910390a35050565b8173ffffffffffffffffffffffffffffffffffffffff168373ffffffffffffffffffffffffffffffffffffffff1603611e15576040517f08c379a0000000000000000000000000000000000000000000000000000000008152600401611e0c90613600565b60405180910390fd5b8060055f8573ffffffffffffffffffffffffffffffffffffffff1673ffffffffffffffffffffffffffffffffffffffff1681526020019081526020015f205f8473ffffffffffffffffffffffffffffffffffffffff1673ffffffffffffffffffffffffffffffffffffffff1681526020019081526020015f205f6101000a81548160ff0219169083151502179055508173ffffffffffffffffffffffffffffffffffffffff168373ffffffffffffffffffffffffffffffffffffffff167f17307eab39ab6107e8899845ad3d59bd9653f200f220920489ca2b5937696c3183604051611f01919061268d565b60405180910390a3505050565b611f19848484611941565b611f25848484846120da565b611f64576040517f08c379a0000000000000000000000000000000000000000000000000000000008152600401611f5b9061368e565b60405180910390fd5b50505050565b5f5f73ffffffffffffffffffffffffffffffffffffffff16611f8b83611c2d565b73ffffffffffffffffffffffffffffffffffffffff1614159050919050565b60605f6001611fb88461225c565b0190505f8167ffffffffffffffff811115611fd657611fd561285c565b5b6040519080825280601f01601f1916602001820160405280156120085781602001600182028036833780820191505090505b5090505f82602001820190505b600115612069578080600190039150507f3031323334353637383961626364656600000000000000000000000000000000600a86061a8153600a858161205e5761205d6136ac565b5b0494505f8503612015575b819350505050919050565b61207e83836123ad565b61208a5f8484846120da565b6120c9576040517f08c379a00000000000000000000000000000000000000000000000000000000081526004016120c09061368e565b60405180910390fd5b505050565b50505050565b50505050565b5f6120fa8473ffffffffffffffffffffffffffffffffffffffff166125c0565b1561224f578373ffffffffffffffffffffffffffffffffffffffff1663150b7a0261212361175a565b8786866040518563ffffffff1660e01b8152600401612145949392919061372b565b6020604051808303815f875af192505050801561218057506040513d601f19601f8201168201806040525081019061217d9190613789565b60015b6121ff573d805f81146121ae576040519150601f19603f3d011682016040523d82523d5f602084013e6121b3565b606091505b505f8151036121f7576040517f08c379a00000000000000000000000000000000000000000000000000000000081526004016121ee9061368e565b60405180910390fd5b805181602001fd5b63150b7a0260e01b7bffffffffffffffffffffffffffffffffffffffffffffffffffffffff1916817bffffffffffffffffffffffffffffffffffffffffffffffffffffffff191614915050612254565b600190505b949350505050565b5f5f5f90507a184f03e93ff9f4daa797ed6e38ed64bf6a1f01000000000000000083106122b8577a184f03e93ff9f4daa797ed6e38ed64bf6a1f01000000000000000083816122ae576122ad6136ac565b5b0492506040810190505b6d04ee2d6d415b85acef810000000083106122f5576d04ee2d6d415b85acef810000000083816122eb576122ea6136ac565b5b0492506020810190505b662386f26fc10000831061232457662386f26fc10000838161231a576123196136ac565b5b0492506010810190505b6305f5e100831061234d576305f5e1008381612343576123426136ac565b5b0492506008810190505b6127108310612372576127108381612368576123676136ac565b5b0492506004810190505b60648310612395576064838161238b5761238a6136ac565b5b0492506002810190505b600a83106123a4576001810190505b80915050919050565b5f73ffffffffffffffffffffffffffffffffffffffff168273ffffffffffffffffffffffffffffffffffffffff160361241b576040517f08c379a0000000000000000000000000000000000000000000000000000000008152600401612412906137fe565b60405180910390fd5b61242481611f6a565b15612464576040517f08c379a000000000000000000000000000000000000000000000000000000000815260040161245b90613866565b60405180910390fd5b6124715f838360016120ce565b61247a81611f6a565b156124ba576040517f08c379a00000000000000000000000000000000000000000000000000000000081526004016124b190613866565b60405180910390fd5b600160035f8473ffffffffffffffffffffffffffffffffffffffff1673ffffffffffffffffffffffffffffffffffffffff1681526020019081526020015f205f82825401925050819055508160025f8381526020019081526020015f205f6101000a81548173ffffffffffffffffffffffffffffffffffffffff021916908373ffffffffffffffffffffffffffffffffffffffff160217905550808273ffffffffffffffffffffffffffffffffffffffff165f73ffffffffffffffffffffffffffffffffffffffff167fddf252ad1be2c89b69c2b068fc378daa952ba7f163c4a11628f55a4df523b3ef60405160405180910390a46125bc5f838360016120d4565b5050565b5f5f8273ffffffffffffffffffffffffffffffffffffffff163b119050919050565b5f604051905090565b5f5ffd5b5f5ffd5b5f7fffffffff0000000000000000000000000000000000000000000000000000000082169050919050565b612627816125f3565b8114612631575f5ffd5b50565b5f813590506126428161261e565b92915050565b5f6020828403121561265d5761265c6125eb565b5b5f61266a84828501612634565b91505092915050565b5f8115159050919050565b61268781612673565b82525050565b5f6020820190506126a05f83018461267e565b92915050565b5f81519050919050565b5f82825260208201905092915050565b8281835e5f83830152505050565b5f601f19601f8301169050919050565b5f6126e8826126a6565b6126f281856126b0565b93506127028185602086016126c0565b61270b816126ce565b840191505092915050565b5f6020820190508181035f83015261272e81846126de565b905092915050565b5f819050919050565b61274881612736565b8114612752575f5ffd5b50565b5f813590506127638161273f565b92915050565b5f6020828403121561277e5761277d6125eb565b5b5f61278b84828501612755565b91505092915050565b5f73ffffffffffffffffffffffffffffffffffffffff82169050919050565b5f6127bd82612794565b9050919050565b6127cd816127b3565b82525050565b5f6020820190506127e65f8301846127c4565b92915050565b6127f5816127b3565b81146127ff575f5ffd5b50565b5f81359050612810816127ec565b92915050565b5f5f6040838503121561282c5761282b6125eb565b5b5f61283985828601612802565b925050602061284a85828601612755565b9150509250929050565b5f5ffd5b5f5ffd5b7f4e487b71000000000000000000000000000000000000000000000000000000005f52604160045260245ffd5b612892826126ce565b810181811067ffffffffffffffff821117156128b1576128b061285c565b5b80604052505050565b5f6128c36125e2565b90506128cf8282612889565b919050565b5f67ffffffffffffffff8211156128ee576128ed61285c565b5b6128f7826126ce565b9050602081019050919050565b828183375f83830152505050565b5f61292461291f846128d4565b6128ba565b9050828152602081018484840111156129405761293f612858565b5b61294b848285612904565b509392505050565b5f82601f83011261296757612966612854565b5b8135612977848260208601612912565b91505092915050565b5f60208284031215612995576129946125eb565b5b5f82013567ffffffffffffffff8111156129b2576129b16125ef565b5b6129be84828501612953565b91505092915050565b5f5f5f606084860312156129de576129dd6125eb565b5b5f6129eb86828701612802565b93505060206129fc86828701612802565b9250506040612a0d86828701612755565b9150509250925092565b5f60208284031215612a2c57612a2b6125eb565b5b5f612a3984828501612802565b91505092915050565b612a4b81612736565b82525050565b5f602082019050612a645f830184612a42565b92915050565b612a7381612673565b8114612a7d575f5ffd5b50565b5f81359050612a8e81612a6a565b92915050565b5f5f60408385031215612aaa57612aa96125eb565b5b5f612ab785828601612802565b9250506020612ac885828601612a80565b9150509250929050565b5f67ffffffffffffffff821115612aec57612aeb61285c565b5b612af5826126ce565b9050602081019050919050565b5f612b14612b0f84612ad2565b6128ba565b905082815260208101848484011115612b3057612b2f612858565b5b612b3b848285612904565b509392505050565b5f82601f830112612b5757612b56612854565b5b8135612b67848260208601612b02565b91505092915050565b5f5f5f5f60808587031215612b8857612b876125eb565b5b5f612b9587828801612802565b9450506020612ba687828801612802565b9350506040612bb787828801612755565b925050606085013567ffffffffffffffff811115612bd857612bd76125ef565b5b612be487828801612b43565b91505092959194509250565b5f819050919050565b612c0281612bf0565b8114612c0c575f5ffd5b50565b5f81359050612c1d81612bf9565b92915050565b5f60208284031215612c3857612c376125eb565b5b5f612c4584828501612c0f565b91505092915050565b5f5f60408385031215612c6457612c636125eb565b5b5f83013567ffffffffffffffff811115612c8157612c806125ef565b5b612c8d85828601612953565b9250506020612c9e85828601612a80565b9150509250929050565b5f5f60408385031215612cbe57612cbd6125eb565b5b5f612ccb85828601612802565b9250506020612cdc85828601612802565b9150509250929050565b7f4e487b71000000000000000000000000000000000000000000000000000000005f52602260045260245ffd5b5f6002820490506001821680612d2a57607f821691505b602082108103612d3d57612d3c612ce6565b5b50919050565b7f4552433732313a20617070726f76616c20746f2063757272656e74206f776e655f8201527f7200000000000000000000000000000000000000000000000000000000000000602082015250565b5f612d9d6021836126b0565b9150612da882612d43565b604082019050919050565b5f6020820190508181035f830152612dca81612d91565b9050919050565b7f4552433732313a20617070726f76652063616c6c6572206973206e6f7420746f5f8201527f6b656e206f776e6572206f7220617070726f76656420666f7220616c6c000000602082015250565b5f612e2b603d836126b0565b9150612e3682612dd1565b604082019050919050565b5f6020820190508181035f830152612e5881612e1f565b9050919050565b5f81905092915050565b5f612e73826126a6565b612e7d8185612e5f565b9350612e8d8185602086016126c0565b80840191505092915050565b5f612ea48284612e69565b915081905092915050565b7f457468456e7567753a20656d61696c206e6f7420616c6c6f77656400000000005f82015250565b5f612ee3601b836126b0565b9150612eee82612eaf565b602082019050919050565b5f6020820190508181035f830152612f1081612ed7565b9050919050565b7f5265736964656e63793a20616c7265616479206d696e746564000000000000005f82015250565b5f612f4b6019836126b0565b9150612f5682612f17565b602082019050919050565b5f6020820190508181035f830152612f7881612f3f565b9050919050565b7f4e487b71000000000000000000000000000000000000000000000000000000005f52602160045260245ffd5b7f4552433732313a2063616c6c6572206973206e6f7420746f6b656e206f776e655f8201527f72206f7220617070726f76656400000000000000000000000000000000000000602082015250565b5f613006602d836126b0565b915061301182612fac565b604082019050919050565b5f6020820190508181035f83015261303381612ffa565b9050919050565b7f436f6e666572656e63653a20616c7265616479206d696e7465640000000000005f82015250565b5f61306e601a836126b0565b91506130798261303a565b602082019050919050565b5f6020820190508181035f83015261309b81613062565b9050919050565b7f4552433732313a20696e76616c696420746f6b656e20494400000000000000005f82015250565b5f6130d66018836126b0565b91506130e1826130a2565b602082019050919050565b5f6020820190508181035f830152613103816130ca565b9050919050565b7f4552433732313a2061646472657373207a65726f206973206e6f7420612076615f8201527f6c6964206f776e65720000000000000000000000000000000000000000000000602082015250565b5f6131646029836126b0565b915061316f8261310a565b604082019050919050565b5f6020820190508181035f83015261319181613158565b9050919050565b7f496e56656e75653a20616c7265616479206d696e7465640000000000000000005f82015250565b5f6131cc6017836126b0565b91506131d782613198565b602082019050919050565b5f6020820190508181035f8301526131f9816131c0565b9050919050565b7f4552433732313a2055524920717565727920666f72206e6f6e6578697374656e5f8201527f7420746f6b656e00000000000000000000000000000000000000000000000000602082015250565b5f61325a6027836126b0565b915061326582613200565b604082019050919050565b5f6020820190508181035f8301526132878161324e565b9050919050565b7f2e6a736f6e0000000000000000000000000000000000000000000000000000005f82015250565b5f6132c2600583612e5f565b91506132cd8261328e565b600582019050919050565b5f6132e38285612e69565b91506132ef8284612e69565b91506132fa826132b6565b91508190509392505050565b61330f81612bf0565b82525050565b5f6040820190506133285f830185613306565b613335602083018461267e565b9392505050565b7f4f776e61626c653a206e6577206f776e657220697320746865207a65726f20615f8201527f6464726573730000000000000000000000000000000000000000000000000000602082015250565b5f6133966026836126b0565b91506133a18261333c565b604082019050919050565b5f6020820190508181035f8301526133c38161338a565b9050919050565b7f5265656e7472616e637947756172643a207265656e7472616e742063616c6c005f82015250565b5f6133fe601f836126b0565b9150613409826133ca565b602082019050919050565b5f6020820190508181035f83015261342b816133f2565b9050919050565b7f4552433732313a207472616e736665722066726f6d20696e636f7272656374205f8201527f6f776e6572000000000000000000000000000000000000000000000000000000602082015250565b5f61348c6025836126b0565b915061349782613432565b604082019050919050565b5f6020820190508181035f8301526134b981613480565b9050919050565b7f4552433732313a207472616e7366657220746f20746865207a65726f206164645f8201527f7265737300000000000000000000000000000000000000000000000000000000602082015250565b5f61351a6024836126b0565b9150613525826134c0565b604082019050919050565b5f6020820190508181035f8301526135478161350e565b9050919050565b7f4f776e61626c653a2063616c6c6572206973206e6f7420746865206f776e65725f82015250565b5f6135826020836126b0565b915061358d8261354e565b602082019050919050565b5f6020820190508181035f8301526135af81613576565b9050919050565b7f4552433732313a20617070726f766520746f2063616c6c6572000000000000005f82015250565b5f6135ea6019836126b0565b91506135f5826135b6565b602082019050919050565b5f6020820190508181035f830152613617816135de565b9050919050565b7f4552433732313a207472616e7366657220746f206e6f6e2045524337323152655f8201527f63656976657220696d706c656d656e7465720000000000000000000000000000602082015250565b5f6136786032836126b0565b91506136838261361e565b604082019050919050565b5f6020820190508181035f8301526136a58161366c565b9050919050565b7f4e487b71000000000000000000000000000000000000000000000000000000005f52601260045260245ffd5b5f81519050919050565b5f82825260208201905092915050565b5f6136fd826136d9565b61370781856136e3565b93506137178185602086016126c0565b613720816126ce565b840191505092915050565b5f60808201905061373e5f8301876127c4565b61374b60208301866127c4565b6137586040830185612a42565b818103606083015261376a81846136f3565b905095945050505050565b5f815190506137838161261e565b92915050565b5f6020828403121561379e5761379d6125eb565b5b5f6137ab84828501613775565b91505092915050565b7f4552433732313a206d696e7420746f20746865207a65726f20616464726573735f82015250565b5f6137e86020836126b0565b91506137f3826137b4565b602082019050919050565b5f6020820190508181035f830152613815816137dc565b9050919050565b7f4552433732313a20746f6b656e20616c7265616479206d696e746564000000005f82015250565b5f613850601c836126b0565b915061385b8261381c565b602082019050919050565b5f6020820190508181035f83015261387d81613844565b905091905056fea2646970667358221220d5f32cb4078a6d6dd31472c7c3f0b5bd84ccd6093f60051b92bc9b923551a5a264736f6c634300081c0033","linkReferences":{}},"methodIdentifiers":{"allowedResidencyEmails(bytes32)":"d224aa67","approve(address,uint256)":"095ea7b3","balanceOf(address)":"70a08231","conferenceBaseTokenURI()":"f810a5f9","getApproved(uint256)":"081812fc","hasMintedConference(address)":"da3d737f","hasMintedInVenue(address)":"9979ffb0","hasMintedResidency(address)":"554e124d","inVenueBaseTokenURI()":"f15877f3","isApprovedForAll(address,address)":"e985e9c5","mintBuilderResidency(string)":"0d6b020c","mintConferenceAttendance()":"4599affb","mintInVenueRegistration()":"97c3d580","name()":"06fdde03","owner()":"8da5cb5b","ownerOf(uint256)":"6352211e","renounceOwnership()":"715018a6","residencyBaseTokenURI()":"e844a92a","safeTransferFrom(address,address,uint256)":"42842e0e","safeTransferFrom(address,address,uint256,bytes)":"b88d4fde","setApprovalForAll(address,bool)":"a22cb465","supportsInterface(bytes4)":"01ffc9a7","symbol()":"95d89b41","tokenURI(uint256)":"c87b56dd","transferFrom(address,address,uint256)":"23b872dd","transferOwnership(address)":"f2fde38b","updateAllowedResidencyEmail(string,bool)":"dabe09e7"},"id":29}