{"abi":[{"type":"constructor","inputs":[{"name":"name_","type":"string","internalType":"string"},{"name":"symbol_","type":"string","internalType":"string"}],"stateMutability":"nonpayable"},{"type":"function","name":"allowedConferenceMinters","inputs":[{"name":"","type":"address","internalType":"address"}],"outputs":[{"name":"","type":"bool","internalType":"bool"}],"stateMutability":"view"},{"type":"function","name":"allowedInVenueMinters","inputs":[{"name":"","type":"address","internalType":"address"}],"outputs":[{"name":"","type":"bool","internalType":"bool"}],"stateMutability":"view"},{"type":"function","name":"allowedResidencyMinters","inputs":[{"name":"","type":"address","internalType":"address"}],"outputs":[{"name":"","type":"bool","internalType":"bool"}],"stateMutability":"view"},{"type":"function","name":"approve","inputs":[{"name":"to","type":"address","internalType":"address"},{"name":"tokenId","type":"uint256","internalType":"uint256"}],"outputs":[],"stateMutability":"nonpayable"},{"type":"function","name":"balanceOf","inputs":[{"name":"owner","type":"address","internalType":"address"}],"outputs":[{"name":"","type":"uint256","internalType":"uint256"}],"stateMutability":"view"},{"type":"function","name":"conferenceBaseTokenURI","inputs":[],"outputs":[{"name":"","type":"string","internalType":"string"}],"stateMutability":"view"},{"type":"function","name":"getApproved","inputs":[{"name":"tokenId","type":"uint256","internalType":"uint256"}],"outputs":[{"name":"","type":"address","internalType":"address"}],"stateMutability":"view"},{"type":"function","name":"hasMintedConference","inputs":[{"name":"","type":"address","internalType":"address"}],"outputs":[{"name":"","type":"bool","internalType":"bool"}],"stateMutability":"view"},{"type":"function","name":"hasMintedInVenue","inputs":[{"name":"","type":"address","internalType":"address"}],"outputs":[{"name":"","type":"bool","internalType":"bool"}],"stateMutability":"view"},{"type":"function","name":"hasMintedResidency","inputs":[{"name":"","type":"address","internalType":"address"}],"outputs":[{"name":"","type":"bool","internalType":"bool"}],"stateMutability":"view"},{"type":"function","name":"inVenueBaseTokenURI","inputs":[],"outputs":[{"name":"","type":"string","internalType":"string"}],"stateMutability":"view"},{"type":"function","name":"isApprovedForAll","inputs":[{"name":"owner","type":"address","internalType":"address"},{"name":"operator","type":"address","internalType":"address"}],"outputs":[{"name":"","type":"bool","internalType":"bool"}],"stateMutability":"view"},{"type":"function","name":"mintBuilderResidency","inputs":[],"outputs":[],"stateMutability":"nonpayable"},{"type":"function","name":"mintConferenceAttendance","inputs":[],"outputs":[],"stateMutability":"nonpayable"},{"type":"function","name":"mintInVenueRegistration","inputs":[],"outputs":[],"stateMutability":"nonpayable"},{"type":"function","name":"name","inputs":[],"outputs":[{"name":"","type":"string","internalType":"string"}],"stateMutability":"view"},{"type":"function","name":"owner","inputs":[],"outputs":[{"name":"","type":"address","internalType":"address"}],"stateMutability":"view"},{"type":"function","name":"ownerOf","inputs":[{"name":"tokenId","type":"uint256","internalType":"uint256"}],"outputs":[{"name":"","type":"address","internalType":"address"}],"stateMutability":"view"},{"type":"function","name":"renounceOwnership","inputs":[],"outputs":[],"stateMutability":"nonpayable"},{"type":"function","name":"residencyBaseTokenURI","inputs":[],"outputs":[{"name":"","type":"string","internalType":"string"}],"stateMutability":"view"},{"type":"function","name":"safeTransferFrom","inputs":[{"name":"from","type":"address","internalType":"address"},{"name":"to","type":"address","internalType":"address"},{"name":"tokenId","type":"uint256","internalType":"uint256"}],"outputs":[],"stateMutability":"nonpayable"},{"type":"function","name":"safeTransferFrom","inputs":[{"name":"from","type":"address","internalType":"address"},{"name":"to","type":"address","internalType":"address"},{"name":"tokenId","type":"uint256","internalType":"uint256"},{"name":"data","type":"bytes","internalType":"bytes"}],"outputs":[],"stateMutability":"nonpayable"},{"type":"function","name":"setApprovalForAll","inputs":[{"name":"operator","type":"address","internalType":"address"},{"name":"approved","type":"bool","internalType":"bool"}],"outputs":[],"stateMutability":"nonpayable"},{"type":"function","name":"supportsInterface","inputs":[{"name":"interfaceId","type":"bytes4","internalType":"bytes4"}],"outputs":[{"name":"","type":"bool","internalType":"bool"}],"stateMutability":"view"},{"type":"function","name":"symbol","inputs":[],"outputs":[{"name":"","type":"string","internalType":"string"}],"stateMutability":"view"},{"type":"function","name":"tokenURI","inputs":[{"name":"tokenId","type":"uint256","internalType":"uint256"}],"outputs":[{"name":"","type":"string","internalType":"string"}],"stateMutability":"view"},{"type":"function","name":"transferFrom","inputs":[{"name":"from","type":"address","internalType":"address"},{"name":"to","type":"address","internalType":"address"},{"name":"tokenId","type":"uint256","internalType":"uint256"}],"outputs":[],"stateMutability":"nonpayable"},{"type":"function","name":"transferOwnership","inputs":[{"name":"newOwner","type":"address","internalType":"address"}],"outputs":[],"stateMutability":"nonpayable"},{"type":"function","name":"updateAllowedConferenceMinter","inputs":[{"name":"minter","type":"address","internalType":"address"},{"name":"ok","type":"bool","internalType":"bool"}],"outputs":[],"stateMutability":"nonpayable"},{"type":"function","name":"updateAllowedInVenueMinter","inputs":[{"name":"minter","type":"address","internalType":"address"},{"name":"ok","type":"bool","internalType":"bool"}],"outputs":[],"stateMutability":"nonpayable"},{"type":"function","name":"updateAllowedResidencyMinter","inputs":[{"name":"minter","type":"address","internalType":"address"},{"name":"ok","type":"bool","internalType":"bool"}],"outputs":[],"stateMutability":"nonpayable"},{"type":"event","name":"AllowedMinterUpdated","inputs":[{"name":"minter","type":"address","indexed":true,"internalType":"address"},{"name":"allowed","type":"bool","indexed":false,"internalType":"bool"}],"anonymous":false},{"type":"event","name":"Approval","inputs":[{"name":"owner","type":"address","indexed":true,"internalType":"address"},{"name":"approved","type":"address","indexed":true,"internalType":"address"},{"name":"tokenId","type":"uint256","indexed":true,"internalType":"uint256"}],"anonymous":false},{"type":"event","name":"ApprovalForAll","inputs":[{"name":"owner","type":"address","indexed":true,"internalType":"address"},{"name":"operator","type":"address","indexed":true,"internalType":"address"},{"name":"approved","type":"bool","indexed":false,"internalType":"bool"}],"anonymous":false},{"type":"event","name":"BaseTokenURIUpdated","inputs":[{"name":"category","type":"uint8","indexed":false,"internalType":"enum EthEnugu.Category"},{"name":"newBaseURI","type":"string","indexed":false,"internalType":"string"}],"anonymous":false},{"type":"event","name":"ConferenceMinted","inputs":[{"name":"to","type":"address","indexed":true,"internalType":"address"},{"name":"tokenId","type":"uint256","indexed":true,"internalType":"uint256"}],"anonymous":false},{"type":"event","name":"InVenueMinted","inputs":[{"name":"to","type":"address","indexed":true,"internalType":"address"},{"name":"tokenId","type":"uint256","indexed":true,"internalType":"uint256"}],"anonymous":false},{"type":"event","name":"OwnershipTransferred","inputs":[{"name":"previousOwner","type":"address","indexed":true,"internalType":"address"},{"name":"newOwner","type":"address","indexed":true,"internalType":"address"}],"anonymous":false},{"type":"event","name":"ResidencyMinted","inputs":[{"name":"to","type":"address","indexed":true,"internalType":"address"},{"name":"tokenId","type":"uint256","indexed":true,"internalType":"uint256"}],"anonymous":false},{"type":"event","name":"Transfer","inputs":[{"name":"from","type":"address","indexed":true,"internalType":"address"},{"name":"to","type":"address","indexed":true,"internalType":"address"},{"name":"tokenId","type":"uint256","indexed":true,"internalType":"uint256"}],"anonymous":false}],"bytecode":{"object":"0x608060405234801561000f575f5ffd5b506040516142333803806142338339818101604052810190610031919061048b565b8181815f90816100419190610711565b5080600190816100519190610711565b50505061007061006561027460201b60201c565b61027b60201b60201c565b60016007819055506040518060400160405280601e81526020017f68747470733a2f2f7265736964656e63792e6578616d706c652f6170692f0000815250600e90816100bc9190610711565b506040518060400160405280601c81526020017f68747470733a2f2f696e76656e75652e6578616d706c652f6170692f00000000815250600f90816101019190610711565b506040518060400160405280601f81526020017f68747470733a2f2f636f6e666572656e63652e6578616d706c652f6170692f00815250601090816101469190610711565b50600160085f61015a61027460201b60201c565b73ffffffffffffffffffffffffffffffffffffffff1673ffffffffffffffffffffffffffffffffffffffff1681526020019081526020015f205f6101000a81548160ff021916908315150217905550600160095f6101bc61027460201b60201c565b73ffffffffffffffffffffffffffffffffffffffff1673ffffffffffffffffffffffffffffffffffffffff1681526020019081526020015f205f6101000a81548160ff0219169083151502179055506001600a5f61021e61027460201b60201c565b73ffffffffffffffffffffffffffffffffffffffff1673ffffffffffffffffffffffffffffffffffffffff1681526020019081526020015f205f6101000a81548160ff02191690831515021790555050506107e0565b5f33905090565b5f60065f9054906101000a900473ffffffffffffffffffffffffffffffffffffffff1690508160065f6101000a81548173ffffffffffffffffffffffffffffffffffffffff021916908373ffffffffffffffffffffffffffffffffffffffff1602179055508173ffffffffffffffffffffffffffffffffffffffff168173ffffffffffffffffffffffffffffffffffffffff167f8be0079c531659141344cd1fd0a4f28419497f9722a3daafe3b4186f6b6457e060405160405180910390a35050565b5f604051905090565b5f5ffd5b5f5ffd5b5f5ffd5b5f5ffd5b5f601f19601f8301169050919050565b7f4e487b71000000000000000000000000000000000000000000000000000000005f52604160045260245ffd5b61039d82610357565b810181811067ffffffffffffffff821117156103bc576103bb610367565b5b80604052505050565b5f6103ce61033e565b90506103da8282610394565b919050565b5f67ffffffffffffffff8211156103f9576103f8610367565b5b61040282610357565b9050602081019050919050565b8281835e5f83830152505050565b5f61042f61042a846103df565b6103c5565b90508281526020810184848401111561044b5761044a610353565b5b61045684828561040f565b509392505050565b5f82601f8301126104725761047161034f565b5b815161048284826020860161041d565b91505092915050565b5f5f604083850312156104a1576104a0610347565b5b5f83015167ffffffffffffffff8111156104be576104bd61034b565b5b6104ca8582860161045e565b925050602083015167ffffffffffffffff8111156104eb576104ea61034b565b5b6104f78582860161045e565b9150509250929050565b5f81519050919050565b7f4e487b71000000000000000000000000000000000000000000000000000000005f52602260045260245ffd5b5f600282049050600182168061054f57607f821691505b6020821081036105625761056161050b565b5b50919050565b5f819050815f5260205f209050919050565b5f6020601f8301049050919050565b5f82821b905092915050565b5f600883026105c47fffffffffffffffffffffffffffffffffffffffffffffffffffffffffffffffff82610589565b6105ce8683610589565b95508019841693508086168417925050509392505050565b5f819050919050565b5f819050919050565b5f61061261060d610608846105e6565b6105ef565b6105e6565b9050919050565b5f819050919050565b61062b836105f8565b61063f61063782610619565b848454610595565b825550505050565b5f5f905090565b610656610647565b610661818484610622565b505050565b5b81811015610684576106795f8261064e565b600181019050610667565b5050565b601f8211156106c95761069a81610568565b6106a38461057a565b810160208510156106b2578190505b6106c66106be8561057a565b830182610666565b50505b505050565b5f82821c905092915050565b5f6106e95f19846008026106ce565b1980831691505092915050565b5f61070183836106da565b9150826002028217905092915050565b61071a82610501565b67ffffffffffffffff81111561073357610732610367565b5b61073d8254610538565b610748828285610688565b5f60209050601f831160018114610779575f8415610767578287015190505b61077185826106f6565b8655506107d8565b601f19841661078786610568565b5f5b828110156107ae57848901518255600182019150602085019450602081019050610789565b868310156107cb57848901516107c7601f8916826106da565b8355505b6001600288020188555050505b505050505050565b613a46806107ed5f395ff3fe608060405234801561000f575f5ffd5b50600436106101e3575f3560e01c806397c3d5801161010d578063da3d737f116100a0578063f15877f31161006f578063f15877f314610577578063f2fde38b14610595578063f810a5f9146105b1578063fb545fed146105cf576101e3565b8063da3d737f146104dd578063e82d2f8d1461050d578063e844a92a14610529578063e985e9c514610547576101e3565b8063a9adc08a116100dc578063a9adc08a14610445578063b88d4fde14610475578063c87b56dd14610491578063c92ff231146104c1576101e3565b806397c3d580146103bf5780639979ffb0146103c9578063a22cb465146103f9578063a4363d2514610415576101e3565b80634599affb1161018557806370a082311161015457806370a0823114610349578063715018a6146103795780638da5cb5b1461038357806395d89b41146103a1576101e3565b80634599affb146102c3578063554e124d146102cd5780635f570905146102fd5780636352211e14610319576101e3565b8063095ea7b3116101c1578063095ea7b3146102655780630aee28861461028157806323b872dd1461028b57806342842e0e146102a7576101e3565b806301ffc9a7146101e757806306fdde0314610217578063081812fc14610235575b5f5ffd5b61020160048036038101906101fc91906129bd565b6105ff565b60405161020e9190612a02565b60405180910390f35b61021f6106e0565b60405161022c9190612a8b565b60405180910390f35b61024f600480360381019061024a9190612ade565b61076f565b60405161025c9190612b48565b60405180910390f35b61027f600480360381019061027a9190612b8b565b6107b1565b005b6102896108c7565b005b6102a560048036038101906102a09190612bc9565b610adf565b005b6102c160048036038101906102bc9190612bc9565b610b3f565b005b6102cb610b5e565b005b6102e760048036038101906102e29190612c19565b610d77565b6040516102f49190612a02565b60405180910390f35b61031760048036038101906103129190612c6e565b610d94565b005b610333600480360381019061032e9190612ade565b610e42565b6040516103409190612b48565b60405180910390f35b610363600480360381019061035e9190612c19565b610ec6565b6040516103709190612cbb565b60405180910390f35b610381610f7a565b005b61038b610f8d565b6040516103989190612b48565b60405180910390f35b6103a9610fb5565b6040516103b69190612a8b565b60405180910390f35b6103c7611045565b005b6103e360048036038101906103de9190612c19565b61125e565b6040516103f09190612a02565b60405180910390f35b610413600480360381019061040e9190612c6e565b61127b565b005b61042f600480360381019061042a9190612c19565b611291565b60405161043c9190612a02565b60405180910390f35b61045f600480360381019061045a9190612c19565b6112ae565b60405161046c9190612a02565b60405180910390f35b61048f600480360381019061048a9190612e00565b6112cb565b005b6104ab60048036038101906104a69190612ade565b61132d565b6040516104b89190612a8b565b60405180910390f35b6104db60048036038101906104d69190612c6e565b6115d1565b005b6104f760048036038101906104f29190612c19565b61167f565b6040516105049190612a02565b60405180910390f35b61052760048036038101906105229190612c6e565b61169c565b005b61053161174a565b60405161053e9190612a8b565b60405180910390f35b610561600480360381019061055c9190612e80565b6117d6565b60405161056e9190612a02565b60405180910390f35b61057f611864565b60405161058c9190612a8b565b60405180910390f35b6105af60048036038101906105aa9190612c19565b6118f0565b005b6105b9611972565b6040516105c69190612a8b565b60405180910390f35b6105e960048036038101906105e49190612c19565b6119fe565b6040516105f69190612a02565b60405180910390f35b5f7f80ac58cd000000000000000000000000000000000000000000000000000000007bffffffffffffffffffffffffffffffffffffffffffffffffffffffff1916827bffffffffffffffffffffffffffffffffffffffffffffffffffffffff191614806106c957507f5b5e139f000000000000000000000000000000000000000000000000000000007bffffffffffffffffffffffffffffffffffffffffffffffffffffffff1916827bffffffffffffffffffffffffffffffffffffffffffffffffffffffff1916145b806106d957506106d882611a1b565b5b9050919050565b60605f80546106ee90612eeb565b80601f016020809104026020016040519081016040528092919081815260200182805461071a90612eeb565b80156107655780601f1061073c57610100808354040283529160200191610765565b820191905f5260205f20905b81548152906001019060200180831161074857829003601f168201915b5050505050905090565b5f61077982611a84565b60045f8381526020019081526020015f205f9054906101000a900473ffffffffffffffffffffffffffffffffffffffff169050919050565b5f6107bb82610e42565b90508073ffffffffffffffffffffffffffffffffffffffff168373ffffffffffffffffffffffffffffffffffffffff160361082b576040517f08c379a000000000000000000000000000000000000000000000000000000000815260040161082290612f8b565b60405180910390fd5b8073ffffffffffffffffffffffffffffffffffffffff1661084a611acf565b73ffffffffffffffffffffffffffffffffffffffff161480610879575061087881610873611acf565b6117d6565b5b6108b8576040517f08c379a00000000000000000000000000000000000000000000000000000000081526004016108af90613019565b60405180910390fd5b6108c28383611ad6565b505050565b60085f3373ffffffffffffffffffffffffffffffffffffffff1673ffffffffffffffffffffffffffffffffffffffff1681526020019081526020015f205f9054906101000a900460ff16610950576040517f08c379a000000000000000000000000000000000000000000000000000000000815260040161094790613081565b60405180910390fd5b610958611b8c565b600b5f3373ffffffffffffffffffffffffffffffffffffffff1673ffffffffffffffffffffffffffffffffffffffff1681526020019081526020015f205f9054906101000a900460ff16156109e2576040517f08c379a00000000000000000000000000000000000000000000000000000000081526004016109d9906130e9565b60405180910390fd5b6001600b5f3373ffffffffffffffffffffffffffffffffffffffff1673ffffffffffffffffffffffffffffffffffffffff1681526020019081526020015f205f6101000a81548160ff021916908315150217905550610a416011611bdb565b5f610a4c6011611bef565b90505f60145f8381526020019081526020015f205f6101000a81548160ff02191690836002811115610a8157610a80613107565b5b0217905550610a903382611bfb565b803373ffffffffffffffffffffffffffffffffffffffff167f241dbfb9883faf3356128b53f5286e30ef3310cd5c034e6ace14b65666e613cc60405160405180910390a350610add611c18565b565b610af0610aea611acf565b82611c22565b610b2f576040517f08c379a0000000000000000000000000000000000000000000000000000000008152600401610b26906131a4565b60405180910390fd5b610b3a838383611cb6565b505050565b610b5983838360405180602001604052805f8152506112cb565b505050565b600a5f3373ffffffffffffffffffffffffffffffffffffffff1673ffffffffffffffffffffffffffffffffffffffff1681526020019081526020015f205f9054906101000a900460ff16610be7576040517f08c379a0000000000000000000000000000000000000000000000000000000008152600401610bde90613081565b60405180910390fd5b610bef611b8c565b600d5f3373ffffffffffffffffffffffffffffffffffffffff1673ffffffffffffffffffffffffffffffffffffffff1681526020019081526020015f205f9054906101000a900460ff1615610c79576040517f08c379a0000000000000000000000000000000000000000000000000000000008152600401610c709061320c565b60405180910390fd5b6001600d5f3373ffffffffffffffffffffffffffffffffffffffff1673ffffffffffffffffffffffffffffffffffffffff1681526020019081526020015f205f6101000a81548160ff021916908315150217905550610cd86013611bdb565b5f610ce36013611bef565b9050600260145f8381526020019081526020015f205f6101000a81548160ff02191690836002811115610d1957610d18613107565b5b0217905550610d283382611bfb565b803373ffffffffffffffffffffffffffffffffffffffff167ff799c16cb8da867c1f800fb07956b50c99819b88c6c23c9fed7745245380f25760405160405180910390a350610d75611c18565b565b600b602052805f5260405f205f915054906101000a900460ff1681565b610d9c611fa2565b8060085f8473ffffffffffffffffffffffffffffffffffffffff1673ffffffffffffffffffffffffffffffffffffffff1681526020019081526020015f205f6101000a81548160ff0219169083151502179055508173ffffffffffffffffffffffffffffffffffffffff167fbc84b6b123fbadb172ea788f244995ef2707d76d3b337f1abfb1e6b68bfcb23882604051610e369190612a02565b60405180910390a25050565b5f5f610e4d83612020565b90505f73ffffffffffffffffffffffffffffffffffffffff168173ffffffffffffffffffffffffffffffffffffffff1603610ebd576040517f08c379a0000000000000000000000000000000000000000000000000000000008152600401610eb490613274565b60405180910390fd5b80915050919050565b5f5f73ffffffffffffffffffffffffffffffffffffffff168273ffffffffffffffffffffffffffffffffffffffff1603610f35576040517f08c379a0000000000000000000000000000000000000000000000000000000008152600401610f2c90613302565b60405180910390fd5b60035f8373ffffffffffffffffffffffffffffffffffffffff1673ffffffffffffffffffffffffffffffffffffffff1681526020019081526020015f20549050919050565b610f82611fa2565b610f8b5f612059565b565b5f60065f9054906101000a900473ffffffffffffffffffffffffffffffffffffffff16905090565b606060018054610fc490612eeb565b80601f0160208091040260200160405190810160405280929190818152602001828054610ff090612eeb565b801561103b5780601f106110125761010080835404028352916020019161103b565b820191905f5260205f20905b81548152906001019060200180831161101e57829003601f168201915b5050505050905090565b60095f3373ffffffffffffffffffffffffffffffffffffffff1673ffffffffffffffffffffffffffffffffffffffff1681526020019081526020015f205f9054906101000a900460ff166110ce576040517f08c379a00000000000000000000000000000000000000000000000000000000081526004016110c590613081565b60405180910390fd5b6110d6611b8c565b600c5f3373ffffffffffffffffffffffffffffffffffffffff1673ffffffffffffffffffffffffffffffffffffffff1681526020019081526020015f205f9054906101000a900460ff1615611160576040517f08c379a00000000000000000000000000000000000000000000000000000000081526004016111579061336a565b60405180910390fd5b6001600c5f3373ffffffffffffffffffffffffffffffffffffffff1673ffffffffffffffffffffffffffffffffffffffff1681526020019081526020015f205f6101000a81548160ff0219169083151502179055506111bf6012611bdb565b5f6111ca6012611bef565b9050600160145f8381526020019081526020015f205f6101000a81548160ff02191690836002811115611200576111ff613107565b5b021790555061120f3382611bfb565b803373ffffffffffffffffffffffffffffffffffffffff167f27773c859882361e4dfc8e6306a2f56363bad4aacdc28aa2fb6949e7581edd3760405160405180910390a35061125c611c18565b565b600c602052805f5260405f205f915054906101000a900460ff1681565b61128d611286611acf565b838361211c565b5050565b6008602052805f5260405f205f915054906101000a900460ff1681565b6009602052805f5260405f205f915054906101000a900460ff1681565b6112dc6112d6611acf565b83611c22565b61131b576040517f08c379a0000000000000000000000000000000000000000000000000000000008152600401611312906131a4565b60405180910390fd5b61132784848484612283565b50505050565b6060611338826122df565b611377576040517f08c379a000000000000000000000000000000000000000000000000000000000815260040161136e906133f8565b60405180910390fd5b5f60145f8481526020019081526020015f205f9054906101000a900460ff16905060605f60028111156113ad576113ac613107565b5b8260028111156113c0576113bf613107565b5b0361145557600e80546113d290612eeb565b80601f01602080910402602001604051908101604052809291908181526020018280546113fe90612eeb565b80156114495780601f1061142057610100808354040283529160200191611449565b820191905f5260205f20905b81548152906001019060200180831161142c57829003601f168201915b5050505050905061159e565b6001600281111561146957611468613107565b5b82600281111561147c5761147b613107565b5b0361151157600f805461148e90612eeb565b80601f01602080910402602001604051908101604052809291908181526020018280546114ba90612eeb565b80156115055780601f106114dc57610100808354040283529160200191611505565b820191905f5260205f20905b8154815290600101906020018083116114e857829003601f168201915b5050505050905061159d565b6010805461151e90612eeb565b80601f016020809104026020016040519081016040528092919081815260200182805461154a90612eeb565b80156115955780601f1061156c57610100808354040283529160200191611595565b820191905f5260205f20905b81548152906001019060200180831161157857829003601f168201915b505050505090505b5b806115a88561231f565b6040516020016115b992919061349a565b60405160208183030381529060405292505050919050565b6115d9611fa2565b80600a5f8473ffffffffffffffffffffffffffffffffffffffff1673ffffffffffffffffffffffffffffffffffffffff1681526020019081526020015f205f6101000a81548160ff0219169083151502179055508173ffffffffffffffffffffffffffffffffffffffff167fbc84b6b123fbadb172ea788f244995ef2707d76d3b337f1abfb1e6b68bfcb238826040516116739190612a02565b60405180910390a25050565b600d602052805f5260405f205f915054906101000a900460ff1681565b6116a4611fa2565b8060095f8473ffffffffffffffffffffffffffffffffffffffff1673ffffffffffffffffffffffffffffffffffffffff1681526020019081526020015f205f6101000a81548160ff0219169083151502179055508173ffffffffffffffffffffffffffffffffffffffff167fbc84b6b123fbadb172ea788f244995ef2707d76d3b337f1abfb1e6b68bfcb2388260405161173e9190612a02565b60405180910390a25050565b600e805461175790612eeb565b80601f016020809104026020016040519081016040528092919081815260200182805461178390612eeb565b80156117ce5780601f106117a5576101008083540402835291602001916117ce565b820191905f5260205f20905b8154815290600101906020018083116117b157829003601f168201915b505050505081565b5f60055f8473ffffffffffffffffffffffffffffffffffffffff1673ffffffffffffffffffffffffffffffffffffffff1681526020019081526020015f205f8373ffffffffffffffffffffffffffffffffffffffff1673ffffffffffffffffffffffffffffffffffffffff1681526020019081526020015f205f9054906101000a900460ff16905092915050565b600f805461187190612eeb565b80601f016020809104026020016040519081016040528092919081815260200182805461189d90612eeb565b80156118e85780601f106118bf576101008083540402835291602001916118e8565b820191905f5260205f20905b8154815290600101906020018083116118cb57829003601f168201915b505050505081565b6118f8611fa2565b5f73ffffffffffffffffffffffffffffffffffffffff168173ffffffffffffffffffffffffffffffffffffffff1603611966576040517f08c379a000000000000000000000000000000000000000000000000000000000815260040161195d90613538565b60405180910390fd5b61196f81612059565b50565b6010805461197f90612eeb565b80601f01602080910402602001604051908101604052809291908181526020018280546119ab90612eeb565b80156119f65780601f106119cd576101008083540402835291602001916119f6565b820191905f5260205f20905b8154815290600101906020018083116119d957829003601f168201915b505050505081565b600a602052805f5260405f205f915054906101000a900460ff1681565b5f7f01ffc9a7000000000000000000000000000000000000000000000000000000007bffffffffffffffffffffffffffffffffffffffffffffffffffffffff1916827bffffffffffffffffffffffffffffffffffffffffffffffffffffffff1916149050919050565b611a8d816122df565b611acc576040517f08c379a0000000000000000000000000000000000000000000000000000000008152600401611ac390613274565b60405180910390fd5b50565b5f33905090565b8160045f8381526020019081526020015f205f6101000a81548173ffffffffffffffffffffffffffffffffffffffff021916908373ffffffffffffffffffffffffffffffffffffffff160217905550808273ffffffffffffffffffffffffffffffffffffffff16611b4683610e42565b73ffffffffffffffffffffffffffffffffffffffff167f8c5be1e5ebec7d5bd14f71427d1e84f3dd0314c0f7b2291e5b200ac8c7c3b92560405160405180910390a45050565b600260075403611bd1576040517f08c379a0000000000000000000000000000000000000000000000000000000008152600401611bc8906135a0565b60405180910390fd5b6002600781905550565b6001815f015f828254019250508190555050565b5f815f01549050919050565b611c14828260405180602001604052805f8152506123e9565b5050565b6001600781905550565b5f5f611c2d83610e42565b90508073ffffffffffffffffffffffffffffffffffffffff168473ffffffffffffffffffffffffffffffffffffffff161480611c6f5750611c6e81856117d6565b5b80611cad57508373ffffffffffffffffffffffffffffffffffffffff16611c958461076f565b73ffffffffffffffffffffffffffffffffffffffff16145b91505092915050565b8273ffffffffffffffffffffffffffffffffffffffff16611cd682610e42565b73ffffffffffffffffffffffffffffffffffffffff1614611d2c576040517f08c379a0000000000000000000000000000000000000000000000000000000008152600401611d239061362e565b60405180910390fd5b5f73ffffffffffffffffffffffffffffffffffffffff168273ffffffffffffffffffffffffffffffffffffffff1603611d9a576040517f08c379a0000000000000000000000000000000000000000000000000000000008152600401611d91906136bc565b60405180910390fd5b611da78383836001612443565b8273ffffffffffffffffffffffffffffffffffffffff16611dc782610e42565b73ffffffffffffffffffffffffffffffffffffffff1614611e1d576040517f08c379a0000000000000000000000000000000000000000000000000000000008152600401611e149061362e565b60405180910390fd5b60045f8281526020019081526020015f205f6101000a81549073ffffffffffffffffffffffffffffffffffffffff0219169055600160035f8573ffffffffffffffffffffffffffffffffffffffff1673ffffffffffffffffffffffffffffffffffffffff1681526020019081526020015f205f8282540392505081905550600160035f8473ffffffffffffffffffffffffffffffffffffffff1673ffffffffffffffffffffffffffffffffffffffff1681526020019081526020015f205f82825401925050819055508160025f8381526020019081526020015f205f6101000a81548173ffffffffffffffffffffffffffffffffffffffff021916908373ffffffffffffffffffffffffffffffffffffffff160217905550808273ffffffffffffffffffffffffffffffffffffffff168473ffffffffffffffffffffffffffffffffffffffff167fddf252ad1be2c89b69c2b068fc378daa952ba7f163c4a11628f55a4df523b3ef60405160405180910390a4611f9d8383836001612449565b505050565b611faa611acf565b73ffffffffffffffffffffffffffffffffffffffff16611fc8610f8d565b73ffffffffffffffffffffffffffffffffffffffff161461201e576040517f08c379a000000000000000000000000000000000000000000000000000000000815260040161201590613724565b60405180910390fd5b565b5f60025f8381526020019081526020015f205f9054906101000a900473ffffffffffffffffffffffffffffffffffffffff169050919050565b5f60065f9054906101000a900473ffffffffffffffffffffffffffffffffffffffff1690508160065f6101000a81548173ffffffffffffffffffffffffffffffffffffffff021916908373ffffffffffffffffffffffffffffffffffffffff1602179055508173ffffffffffffffffffffffffffffffffffffffff168173ffffffffffffffffffffffffffffffffffffffff167f8be0079c531659141344cd1fd0a4f28419497f9722a3daafe3b4186f6b6457e060405160405180910390a35050565b8173ffffffffffffffffffffffffffffffffffffffff168373ffffffffffffffffffffffffffffffffffffffff160361218a576040517f08c379a00000000000000000000000000000000000000000000000000000000081526004016121819061378c565b60405180910390fd5b8060055f8573ffffffffffffffffffffffffffffffffffffffff1673ffffffffffffffffffffffffffffffffffffffff1681526020019081526020015f205f8473ffffffffffffffffffffffffffffffffffffffff1673ffffffffffffffffffffffffffffffffffffffff1681526020019081526020015f205f6101000a81548160ff0219169083151502179055508173ffffffffffffffffffffffffffffffffffffffff168373ffffffffffffffffffffffffffffffffffffffff167f17307eab39ab6107e8899845ad3d59bd9653f200f220920489ca2b5937696c31836040516122769190612a02565b60405180910390a3505050565b61228e848484611cb6565b61229a8484848461244f565b6122d9576040517f08c379a00000000000000000000000000000000000000000000000000000000081526004016122d09061381a565b60405180910390fd5b50505050565b5f5f73ffffffffffffffffffffffffffffffffffffffff1661230083612020565b73ffffffffffffffffffffffffffffffffffffffff1614159050919050565b60605f600161232d846125d1565b0190505f8167ffffffffffffffff81111561234b5761234a612cdc565b5b6040519080825280601f01601f19166020018201604052801561237d5781602001600182028036833780820191505090505b5090505f82602001820190505b6001156123de578080600190039150507f3031323334353637383961626364656600000000000000000000000000000000600a86061a8153600a85816123d3576123d2613838565b5b0494505f850361238a575b819350505050919050565b6123f38383612722565b6123ff5f84848461244f565b61243e576040517f08c379a00000000000000000000000000000000000000000000000000000000081526004016124359061381a565b60405180910390fd5b505050565b50505050565b50505050565b5f61246f8473ffffffffffffffffffffffffffffffffffffffff16612935565b156125c4578373ffffffffffffffffffffffffffffffffffffffff1663150b7a02612498611acf565b8786866040518563ffffffff1660e01b81526004016124ba94939291906138b7565b6020604051808303815f875af19250505080156124f557506040513d601f19601f820116820180604052508101906124f29190613915565b60015b612574573d805f8114612523576040519150601f19603f3d011682016040523d82523d5f602084013e612528565b606091505b505f81510361256c576040517f08c379a00000000000000000000000000000000000000000000000000000000081526004016125639061381a565b60405180910390fd5b805181602001fd5b63150b7a0260e01b7bffffffffffffffffffffffffffffffffffffffffffffffffffffffff1916817bffffffffffffffffffffffffffffffffffffffffffffffffffffffff1916149150506125c9565b600190505b949350505050565b5f5f5f90507a184f03e93ff9f4daa797ed6e38ed64bf6a1f010000000000000000831061262d577a184f03e93ff9f4daa797ed6e38ed64bf6a1f010000000000000000838161262357612622613838565b5b0492506040810190505b6d04ee2d6d415b85acef8100000000831061266a576d04ee2d6d415b85acef810000000083816126605761265f613838565b5b0492506020810190505b662386f26fc10000831061269957662386f26fc10000838161268f5761268e613838565b5b0492506010810190505b6305f5e10083106126c2576305f5e10083816126b8576126b7613838565b5b0492506008810190505b61271083106126e75761271083816126dd576126dc613838565b5b0492506004810190505b6064831061270a5760648381612700576126ff613838565b5b0492506002810190505b600a8310612719576001810190505b80915050919050565b5f73ffffffffffffffffffffffffffffffffffffffff168273ffffffffffffffffffffffffffffffffffffffff1603612790576040517f08c379a00000000000000000000000000000000000000000000000000000000081526004016127879061398a565b60405180910390fd5b612799816122df565b156127d9576040517f08c379a00000000000000000000000000000000000000000000000000000000081526004016127d0906139f2565b60405180910390fd5b6127e65f83836001612443565b6127ef816122df565b1561282f576040517f08c379a0000000000000000000000000000000000000000000000000000000008152600401612826906139f2565b60405180910390fd5b600160035f8473ffffffffffffffffffffffffffffffffffffffff1673ffffffffffffffffffffffffffffffffffffffff1681526020019081526020015f205f82825401925050819055508160025f8381526020019081526020015f205f6101000a81548173ffffffffffffffffffffffffffffffffffffffff021916908373ffffffffffffffffffffffffffffffffffffffff160217905550808273ffffffffffffffffffffffffffffffffffffffff165f73ffffffffffffffffffffffffffffffffffffffff167fddf252ad1be2c89b69c2b068fc378daa952ba7f163c4a11628f55a4df523b3ef60405160405180910390a46129315f83836001612449565b5050565b5f5f8273ffffffffffffffffffffffffffffffffffffffff163b119050919050565b5f604051905090565b5f5ffd5b5f5ffd5b5f7fffffffff0000000000000000000000000000000000000000000000000000000082169050919050565b61299c81612968565b81146129a6575f5ffd5b50565b5f813590506129b781612993565b92915050565b5f602082840312156129d2576129d1612960565b5b5f6129df848285016129a9565b91505092915050565b5f8115159050919050565b6129fc816129e8565b82525050565b5f602082019050612a155f8301846129f3565b92915050565b5f81519050919050565b5f82825260208201905092915050565b8281835e5f83830152505050565b5f601f19601f8301169050919050565b5f612a5d82612a1b565b612a678185612a25565b9350612a77818560208601612a35565b612a8081612a43565b840191505092915050565b5f6020820190508181035f830152612aa38184612a53565b905092915050565b5f819050919050565b612abd81612aab565b8114612ac7575f5ffd5b50565b5f81359050612ad881612ab4565b92915050565b5f60208284031215612af357612af2612960565b5b5f612b0084828501612aca565b91505092915050565b5f73ffffffffffffffffffffffffffffffffffffffff82169050919050565b5f612b3282612b09565b9050919050565b612b4281612b28565b82525050565b5f602082019050612b5b5f830184612b39565b92915050565b612b6a81612b28565b8114612b74575f5ffd5b50565b5f81359050612b8581612b61565b92915050565b5f5f60408385031215612ba157612ba0612960565b5b5f612bae85828601612b77565b9250506020612bbf85828601612aca565b9150509250929050565b5f5f5f60608486031215612be057612bdf612960565b5b5f612bed86828701612b77565b9350506020612bfe86828701612b77565b9250506040612c0f86828701612aca565b9150509250925092565b5f60208284031215612c2e57612c2d612960565b5b5f612c3b84828501612b77565b91505092915050565b612c4d816129e8565b8114612c57575f5ffd5b50565b5f81359050612c6881612c44565b92915050565b5f5f60408385031215612c8457612c83612960565b5b5f612c9185828601612b77565b9250506020612ca285828601612c5a565b9150509250929050565b612cb581612aab565b82525050565b5f602082019050612cce5f830184612cac565b92915050565b5f5ffd5b5f5ffd5b7f4e487b71000000000000000000000000000000000000000000000000000000005f52604160045260245ffd5b612d1282612a43565b810181811067ffffffffffffffff82111715612d3157612d30612cdc565b5b80604052505050565b5f612d43612957565b9050612d4f8282612d09565b919050565b5f67ffffffffffffffff821115612d6e57612d6d612cdc565b5b612d7782612a43565b9050602081019050919050565b828183375f83830152505050565b5f612da4612d9f84612d54565b612d3a565b905082815260208101848484011115612dc057612dbf612cd8565b5b612dcb848285612d84565b509392505050565b5f82601f830112612de757612de6612cd4565b5b8135612df7848260208601612d92565b91505092915050565b5f5f5f5f60808587031215612e1857612e17612960565b5b5f612e2587828801612b77565b9450506020612e3687828801612b77565b9350506040612e4787828801612aca565b925050606085013567ffffffffffffffff811115612e6857612e67612964565b5b612e7487828801612dd3565b91505092959194509250565b5f5f60408385031215612e9657612e95612960565b5b5f612ea385828601612b77565b9250506020612eb485828601612b77565b9150509250929050565b7f4e487b71000000000000000000000000000000000000000000000000000000005f52602260045260245ffd5b5f6002820490506001821680612f0257607f821691505b602082108103612f1557612f14612ebe565b5b50919050565b7f4552433732313a20617070726f76616c20746f2063757272656e74206f776e655f8201527f7200000000000000000000000000000000000000000000000000000000000000602082015250565b5f612f75602183612a25565b9150612f8082612f1b565b604082019050919050565b5f6020820190508181035f830152612fa281612f69565b9050919050565b7f4552433732313a20617070726f76652063616c6c6572206973206e6f7420746f5f8201527f6b656e206f776e6572206f7220617070726f76656420666f7220616c6c000000602082015250565b5f613003603d83612a25565b915061300e82612fa9565b604082019050919050565b5f6020820190508181035f83015261303081612ff7565b9050919050565b7f457468456e7567753a2063616c6c6572206e6f7420616c6c6f776564000000005f82015250565b5f61306b601c83612a25565b915061307682613037565b602082019050919050565b5f6020820190508181035f8301526130988161305f565b9050919050565b7f5265736964656e63793a20616c7265616479206d696e746564000000000000005f82015250565b5f6130d3601983612a25565b91506130de8261309f565b602082019050919050565b5f6020820190508181035f830152613100816130c7565b9050919050565b7f4e487b71000000000000000000000000000000000000000000000000000000005f52602160045260245ffd5b7f4552433732313a2063616c6c6572206973206e6f7420746f6b656e206f776e655f8201527f72206f7220617070726f76656400000000000000000000000000000000000000602082015250565b5f61318e602d83612a25565b915061319982613134565b604082019050919050565b5f6020820190508181035f8301526131bb81613182565b9050919050565b7f436f6e666572656e63653a20616c7265616479206d696e7465640000000000005f82015250565b5f6131f6601a83612a25565b9150613201826131c2565b602082019050919050565b5f6020820190508181035f830152613223816131ea565b9050919050565b7f4552433732313a20696e76616c696420746f6b656e20494400000000000000005f82015250565b5f61325e601883612a25565b91506132698261322a565b602082019050919050565b5f6020820190508181035f83015261328b81613252565b9050919050565b7f4552433732313a2061646472657373207a65726f206973206e6f7420612076615f8201527f6c6964206f776e65720000000000000000000000000000000000000000000000602082015250565b5f6132ec602983612a25565b91506132f782613292565b604082019050919050565b5f6020820190508181035f830152613319816132e0565b9050919050565b7f496e56656e75653a20616c7265616479206d696e7465640000000000000000005f82015250565b5f613354601783612a25565b915061335f82613320565b602082019050919050565b5f6020820190508181035f83015261338181613348565b9050919050565b7f4552433732313a2055524920717565727920666f72206e6f6e6578697374656e5f8201527f7420746f6b656e00000000000000000000000000000000000000000000000000602082015250565b5f6133e2602783612a25565b91506133ed82613388565b604082019050919050565b5f6020820190508181035f83015261340f816133d6565b9050919050565b5f81905092915050565b5f61342a82612a1b565b6134348185613416565b9350613444818560208601612a35565b80840191505092915050565b7f2e6a736f6e0000000000000000000000000000000000000000000000000000005f82015250565b5f613484600583613416565b915061348f82613450565b600582019050919050565b5f6134a58285613420565b91506134b18284613420565b91506134bc82613478565b91508190509392505050565b7f4f776e61626c653a206e6577206f776e657220697320746865207a65726f20615f8201527f6464726573730000000000000000000000000000000000000000000000000000602082015250565b5f613522602683612a25565b915061352d826134c8565b604082019050919050565b5f6020820190508181035f83015261354f81613516565b9050919050565b7f5265656e7472616e637947756172643a207265656e7472616e742063616c6c005f82015250565b5f61358a601f83612a25565b915061359582613556565b602082019050919050565b5f6020820190508181035f8301526135b78161357e565b9050919050565b7f4552433732313a207472616e736665722066726f6d20696e636f7272656374205f8201527f6f776e6572000000000000000000000000000000000000000000000000000000602082015250565b5f613618602583612a25565b9150613623826135be565b604082019050919050565b5f6020820190508181035f8301526136458161360c565b9050919050565b7f4552433732313a207472616e7366657220746f20746865207a65726f206164645f8201527f7265737300000000000000000000000000000000000000000000000000000000602082015250565b5f6136a6602483612a25565b91506136b18261364c565b604082019050919050565b5f6020820190508181035f8301526136d38161369a565b9050919050565b7f4f776e61626c653a2063616c6c6572206973206e6f7420746865206f776e65725f82015250565b5f61370e602083612a25565b9150613719826136da565b602082019050919050565b5f6020820190508181035f83015261373b81613702565b9050919050565b7f4552433732313a20617070726f766520746f2063616c6c6572000000000000005f82015250565b5f613776601983612a25565b915061378182613742565b602082019050919050565b5f6020820190508181035f8301526137a38161376a565b9050919050565b7f4552433732313a207472616e7366657220746f206e6f6e2045524337323152655f8201527f63656976657220696d706c656d656e7465720000000000000000000000000000602082015250565b5f613804603283612a25565b915061380f826137aa565b604082019050919050565b5f6020820190508181035f830152613831816137f8565b9050919050565b7f4e487b71000000000000000000000000000000000000000000000000000000005f52601260045260245ffd5b5f81519050919050565b5f82825260208201905092915050565b5f61388982613865565b613893818561386f565b93506138a3818560208601612a35565b6138ac81612a43565b840191505092915050565b5f6080820190506138ca5f830187612b39565b6138d76020830186612b39565b6138e46040830185612cac565b81810360608301526138f6818461387f565b905095945050505050565b5f8151905061390f81612993565b92915050565b5f6020828403121561392a57613929612960565b5b5f61393784828501613901565b91505092915050565b7f4552433732313a206d696e7420746f20746865207a65726f20616464726573735f82015250565b5f613974602083612a25565b915061397f82613940565b602082019050919050565b5f6020820190508181035f8301526139a181613968565b9050919050565b7f4552433732313a20746f6b656e20616c7265616479206d696e746564000000005f82015250565b5f6139dc601c83612a25565b91506139e7826139a8565b602082019050919050565b5f6020820190508181035f830152613a09816139d0565b905091905056fea2646970667358221220d45887768193afb1d313acf4a5091283478598fbff319f9dfd3b2f38cdfc424364736f6c634300081c0033","linkReferences":{}},"methodIdentifiers":{"allowedConferenceMinters(address)":"fb545fed","allowedInVenueMinters(address)":"a9adc08a","allowedResidencyMinters(address)":"a4363d25","approve(address,uint256)":"095ea7b3","balanceOf(address)":"70a08231","conferenceBaseTokenURI()":"f810a5f9","getApproved(uint256)":"081812fc","hasMintedConference(address)":"da3d737f","hasMintedInVenue(address)":"9979ffb0","hasMintedResidency(address)":"554e124d","inVenueBaseTokenURI()":"f15877f3","isApprovedForAll(address,address)":"e985e9c5","mintBuilderResidency()":"0aee2886","mintConferenceAttendance()":"4599affb","mintInVenueRegistration()":"97c3d580","name()":"06fdde03","owner()":"8da5cb5b","ownerOf(uint256)":"6352211e","renounceOwnership()":"715018a6","residencyBaseTokenURI()":"e844a92a","safeTransferFrom(address,address,uint256)":"42842e0e","safeTransferFrom(address,address,uint256,bytes)":"b88d4fde","setApprovalForAll(address,bool)":"a22cb465","supportsInterface(bytes4)":"01ffc9a7","symbol()":"95d89b41","tokenURI(uint256)":"c87b56dd","transferFrom(address,address,uint256)":"23b872dd","transferOwnership(address)":"f2fde38b","updateAllowedConferenceMinter(address,bool)":"c92ff231","updateAllowedInVenueMinter(address,bool)":"e82d2f8d","updateAllowedResidencyMinter(address,bool)":"5f570905"},"id":29}